{"abi":[{"type":"function","name":"VERSION","inputs":[],"outputs":[{"name":"","type":"uint256","internalType":"uint256"}],"stateMutability":"view"},{"type":"function","name":"confirm","inputs":[{"name":"verdictHash","type":"bytes32","internalType":"bytes32"},{"name":"proofHash","type":"bytes32","internalType":"bytes32"}],"outputs":[],"stateMutability":"nonpayable"},{"type":"event","name":"VerdictConfirmed","inputs":[{"name":"verdictHash","type":"bytes32","indexed":false,"internalType":"bytes32"},{"name":"proofHash","type":"bytes32","indexed":false,"internalType":"bytes32"}],"anonymous":false}],"bytecode":{"object":"0x6080604052348015600e575f5ffd5b506101c68061001c5f395ff3fe608060405234801561000f575f5ffd5b5060043610610034575f3560e01c806357f784ba14610038578063ffa1ad7414610054575b5f5ffd5b610052600480360381019061004d91906100eb565b610072565b005b61005c6100af565b6040516100699190610141565b60405180910390f35b7fe11f4869aa8c1f206414a922e4a952bd94d1b88fcaf1ad1124abbd49fb34e68d82826040516100a3929190610169565b60405180910390a15050565b600281565b5f5ffd5b5f819050919050565b6100ca816100b8565b81146100d4575f5ffd5b50565b5f813590506100e5816100c1565b92915050565b5f5f60408385031215610101576101006100b4565b5b5f61010e858286016100d7565b925050602061011f858286016100d7565b9150509250929050565b5f819050919050565b61013b81610129565b82525050565b5f6020820190506101545f830184610132565b92915050565b610163816100b8565b82525050565b5f60408201905061017c5f83018561015a565b610189602083018461015a565b939250505056fea2646970667358221220261eecbded1e00564f97249461ac231d0d35766125109add71f87617b24d770064736f6c63430008210033","linkReferences":{}},"methodIdentifiers":{"VERSION()":"ffa1ad74","confirm(bytes32,bytes32)":"57f784ba"},"id":0}